S0150000436F6F6C65722D73797374656D2E73726563D9
S11300000C9432000C944F000C944F000C944F004D
S11300100C944F000C944F000C944F000C949606D3
S11300200C944F000C944F000C946B060C944F00EE
S11300300C944F000C944F000C944F000C944F0000
S11300400C944F000C944F000C944F000C944F00F0
S11300500C944F00D9030C043F047204A504D80483
S11300600B053E0511241FBECFE5D8E0DEBFCDBF92
S113007010E0A0E6B0E0E8E0F2E102C005900D92E5
S1130080A037B107D9F720E0A0E7B0E001C01D9286
S1130090A437B207E1F70E94C8030C9402090C9438
S11300A000000E948B010E94090361E080E00E942D
S11300B0EE0260E081E00E94E20261E081E00E94E1
S11300C0EA0080E00E94E206089510E080E00E94C9
S11300D0F102EC0180E80E94F60080E690E00E94C4
S11300E06A02BE0180E090E00E947D0280EC0E94E2
S11300F0F60087E690E00E946A02612F70E080E0DB
S113010090E00E947D0285E20E94D501C436D105AB
S113011020F48C2F0E94280303C083E60E94280346
S1130120C332D10550F460E081E00E94EA0261E04C
S113013081E00E94F20010E049C0CE018397069747
S1130140E0F482E38C9FB0018D9F700D112480E058
S113015090E00E94C00720E030E04CE052E40E94AE
S11301601F070E949107162F60E081E00E94E602BB
S113017061E081E00E94EE0029C0CE0189970997D1
S1130180E0F484E68C9FB0018D9F700D112480E013
S113019090E00E94C00720E030E048E452E40E946E
S11301A01F070E949107162F60E081E00E94E6027B
S11301B061E081E00E94EE0009C060E081E00E94FD
S11301C0E60261E081E00E94EE0014E6812F0E94C5
S11301D00F077CCF41E00E948905089541E00E9409
S11301E0FA05089540E00E94FA050895CF93C82FB8
S11301F040E063E083E00E94FA05CC2334F441E05C
S113020067E083E00E94FA0505C040E067E083E010
S11302100E94FA05C6FF06C041E066E083E00E9442
S1130220FA0505C040E066E083E00E94FA05C5FFD8
S113023006C041E065E083E00E94FA0505C040E0A5
S113024065E083E00E94FA05C4FF06C041E064E073
S113025083E00E94FA0505C040E064E083E00E9468
S1130260FA0541E062E083E00E94FA0581E090E053
S11302700E94C90640E062E083E00E94FA0581E042
S113028090E00E94C906C3FF06C041E067E083E036
S11302900E94FA0505C040E067E083E00E94FA0589
S11302A0C2FF06C041E066E083E00E94FA0505C093
S11302B040E066E083E00E94FA05C1FF06C041E029
S11302C065E083E00E94FA0505C040E065E083E054
S11302D00E94FA05C0FF06C041E064E083E00E948A
S11302E0FA0505C040E064E083E00E94FA0541E0BD
S11302F062E083E00E94FA0581E090E00E94C90672
S113030040E062E083E00E94FA0581E090E00E9410
S1130310C906CF91089541E062E083E00E94890517
S113032041E063E083E00E94890541E064E083E00A
S11303300E94890541E065E083E00E94890541E06F
S113034066E083E00E94890541E067E083E00E9463
S1130350890583E00E94F60084E090E00E94C906CB
S113036083E00E94F60084E090E00E94C90683E0E6
S11303700E94F60084E090E00E94C90682E00E9498
S1130380F60088E20E94F60088E00E94F60081E010
S11303900E94F60086E00E94F6008CE00E94F600BF
S11303A084E190E00E94C9060895CF93C82F41E0EC
S11303B063E083E00E94FA05CC2334F441E067E073
S11303C083E00E94FA0505C040E067E083E00E94F4
S11303D0FA05C6FF06C041E066E083E00E94FA0524
S11303E005C040E066E083E00E94FA05C5FF06C050
S11303F041E065E083E00E94FA0505C040E065E065
S113040083E00E94FA05C4FF06C041E064E083E093
S11304100E94FA0505C040E064E083E00E94FA050A
S113042041E062E083E00E94FA0581E090E00E94EE
S1130430C90640E062E083E00E94FA0581E090E0B2
S11304400E94C906C3FF06C041E067E083E00E9442
S1130450FA0505C040E067E083E00E94FA05C2FFA8
S113046006C041E066E083E00E94FA0505C040E072
S113047066E083E00E94FA05C1FF06C041E065E042
S113048083E00E94FA0505C040E065E083E00E9435
S1130490FA05C0FF06C041E064E083E00E94FA056B
S11304A005C040E064E083E00E94FA0541E062E0B8
S11304B083E00E94FA0581E090E00E94C90640E0D2
S11304C062E083E00E94FA0581E090E00E94C906A0
S11304D0CF9108950F931F93CF938C01C0E003C075
S11304E00E94D501CF5FF801EC0FF11D80818111CD
S11304F0F7CFCF911F910F910895CF92DF92EF9292
S1130500FF921F93CF93DF93CDB7DEB72A970FB631
S1130510F894DEBF0FBECDBF6B017C0199235CF460
S11305208DE20E94D501F094E094D094C094C11C53
S1130530D11CE11CF11CC114D104E104F104E1F467
S113054080E30E94D50130C0C701B6012AE030E043
S113055040E050E00E94BB08E1E0F0E0EC0FFD1F3A
S1130560E10FF11D17FDFA95605D6083C22ED32E55
S1130570E42EF52E1F5F01C010E0C114D104E10484
S1130580F10411F7FF24FA94F10E0CC0E1E0F0E05D
S1130590EC0FFD1FEF0DF11DF7FCFA9580810E9411
S11305A0D501FA94FF2094F72A960FB6F894DEBF8B
S11305B00FBECDBFDF91CF911F91FF90EF90DF90E1
S11305C0CF90089541E00E948905089541E00E947A
S11305D0FA05089540E00E94FA0508950E94CF03A9
S11305E008950E947D0526E9AC01249FC001259F42
S11305F0900D1124BC0180E090E00E94C00720E02F
S113060030E04AE953E40E941F070E949107CB019E
S1130610089541E060E082E00E94890541E061E0E4
S113062082E00E94890541E062E082E00E9489053F
S113063041E063E082E00E94890541E064E082E0F9
S11306400E94890541E065E082E00E9489050895E1
S1130650CF93DF93D82FCDEC8C9FC12D1124C69559
S1130660C695C695CC0F8C2F880F880FC80F8D2F79
S11306708C1BC82F40E064E082E00E94FA0541E050
S113068065E082E00E94FA05C3FF06C041E063E032
S113069082E00E94FA0505C040E063E082E00E9427
S11306A0FA05C2FF06C041E062E082E00E94FA055A
S11306B005C040E062E082E00E94FA05C1FF06C086
S11306C041E061E082E00E94FA0505C040E061E09B
S11306D082E00E94FA05C0FF06C041E060E082E0CB
S11306E00E94FA0505C040E060E082E00E94FA053D
S11306F082E390E00E94C906CDECDC9FC12D112459
S1130700C695C695C69541E064E082E00E94FA056C
S113071040E065E082E00E94FA05C3FF06C041E0C4
S113072063E082E00E94FA0505C040E063E082E0F5
S11307300E94FA05C2FF06C041E062E082E00E9426
S1130740FA0505C040E062E082E00E94FA05C1FFBC
S113075006C041E061E082E00E94FA0505C040E085
S113076061E082E00E94FA05C0FF06C041E060E05B
S113077082E00E94FA0505C040E060E082E00E9449
S1130780FA0582E390E00E94C906DF91CF910895B3
S11307900E9451000E94650080E090E0089590E07E
S11307A08830910508F09CC1FC01E65DFF4F0C9474
S11307B0DA08613069F028F0623089F06330B1F012
S11307C01BC087B18F7B87B987B18F7787B914C076
S11307D087B1806487B987B18F7787B90DC087B136
S11307E08F7B87B987B1806887B906C087B1806479
S11307F087B987B1806887B987B18E7F87B987B198
S11308008D7F87B987B18B7F87B987B1877F87B998
S113081087B18F7E87B964C1613069F028F0623096
S113082089F06330B1F01BC087B18F7B87B987B182
S11308308F7787B914C087B1806487B987B18F7700
S113084087B90DC087B18F7B87B987B1806887B9B5
S113085006C087B1806487B987B1806887B987B1DA
S1130860816087B987B18D7F87B987B18B7F87B95D
S113087087B1877F87B987B18F7E87B931C16130EE
S113088069F028F0623089F06330B1F01BC087B1A1
S11308908F7B87B987B18F7787B914C087B180649C
S11308A087B987B18F7787B90DC087B18F7B87B937
S11308B087B1806887B906C087B1806487B987B17A
S11308C0806887B987B18E7F87B987B1826087B91D
S11308D087B18B7F87B987B1877F87B987B18F7ECF
S11308E087B9FEC0613069F028F0623089F0633066
S11308F0B1F01BC087B18F7B87B987B18F7787B978
S113090014C087B1806487B987B18F7787B90DC068
S113091087B18F7B87B987B1806887B906C087B1F3
S1130920806487B987B1806887B987B1816087B9E6
S113093087B1826087B987B18B7F87B987B1877F99
S113094087B987B18F7E87B9CBC0613069F028F051
S1130950623089F06330B1F01BC087B18F7B87B9F7
S113096087B18F7787B914C087B1806487B987B19D
S11309708F7787B90DC087B18F7B87B987B18068BE
S113098087B906C087B1806487B987B1806887B9A1
S113099087B18E7F87B987B18D7F87B987B184602E
S11309A087B987B1877F87B987B18F7E87B998C0A8
S11309B0613069F028F0623089F06330B1F01BC017
S11309C087B18F7B87B987B18F7787B914C087B117
S11309D0806487B987B18F7787B90DC087B18F7B62
S11309E087B987B1806887B906C087B1806487B941
S11309F087B1806887B987B1816087B987B18D7FF6
S1130A0087B987B1846087B987B1877F87B987B190
S1130A108F7E87B965C0613069F028F0623089F053
S1130A206330B1F01BC087B18F7B87B987B18F77F3
S1130A3087B914C087B1806487B987B18F7787B9C4
S1130A400DC087B18F7B87B987B1806887B906C02D
S1130A5087B1806487B987B1806887B987B18E7F91
S1130A6087B987B1826087B987B1846087B987B154
S1130A70877F87B987B18F7E87B932C0613069F0CB
S1130A8028F0623089F06330B1F01BC087B18F7BEE
S1130A9087B987B18F7787B914C087B1806487B964
S1130AA087B18F7787B90DC087B18F7B87B987B13D
S1130AB0806887B906C087B1806487B987B18068C8
S1130AC087B987B1816087B987B1826087B987B1F7
S1130AD0846087B987B1877F87B987B18F7E87B9EB
S1130AE086B1816086B986B1826086B986B1846038
S1130AF086B986B1806886B9089586B1806486B95E
S1130B003699FECF24B185B190E0982F8827822BA7
S1130B100895442319F04130C9F10895813091F0CA
S1130B2028F08230D9F0833029F108952AB381E086
S1130B3090E002C0880F991F6A95E2F7809582239E
S1130B408ABB089527B381E090E002C0880F991F03
S1130B506A95E2F78095822387BB089524B381E0E8
S1130B6090E002C0880F991F6A95E2F7809582236E
S1130B7084BB089521B381E090E002C0880F991FDF
S1130B806A95E2F78095822381BB0895813089F0CC
S1130B9028F08230C9F0833011F108952AB381E03E
S1130BA090E002C0880F991F6A95E2F7822B8ABBF6
S1130BB0089527B381E090E002C0880F991F6A95D9
S1130BC0E2F7822B87BB089524B381E090E002C052
S1130BD0880F991F6A95E2F7822B84BB089521B38D
S1130BE081E090E002C0880F991F6A95E2F7822B9A
S1130BF081BB0895442319F04130C9F1089581302F
S1130C0091F028F08230D9F0833029F108952BB384
S1130C1081E090E002C0880F991F6A95E2F7809501
S1130C2082238BBB089528B381E090E002C0880F33
S1130C30991F6A95E2F78095822388BB089525B3AE
S1130C4081E090E002C0880F991F6A95E2F78095D1
S1130C50822385BB089522B381E090E002C0880F0F
S1130C60991F6A95E2F78095822382BB08958130AB
S1130C7089F028F08230C9F0833011F108952BB344
S1130C8081E090E002C0880F991F6A95E2F7822BF9
S1130C908BBB089528B381E090E002C0880F991FB0
S1130CA06A95E2F7822B88BB089525B381E090E032
S1130CB002C0880F991F6A95E2F7822B85BB0895BD
S1130CC022B381E090E002C0880F991F6A95E2F791
S1130CD0822B82BB08951F920F920FB60F9211249C
S1130CE00F900FBE0F901F9018952EB521602EBD4A
S1130CF02EB528602EBD2FB528602FBD2FB52064DA
S1130D002FBD9BBD8ABD89B7806189BF8FB78068BD
S1130D108FBF1DBC1CBC709371006093700008955C
S1130D201FBC1EBC89B7837C89BF08951F920F9294
S1130D300FB60F9211242F933F934F935F936F93AA
S1130D407F938F939F93AF93BF93EF93FF93E09120
S1130D507000F0917100309709F00995FF91EF91BF
S1130D60BF91AF919F918F917F916F915F914F91BF
S1130D703F912F910F900FBE0F901F901895809167
S1130D8072009091730001969093730080937200A7
S1130D900895CF93DF93EC016FEB76E088EE93E058
S1130DA00E94750610927300109272008091720076
S1130DB0909173008C179D07C8F30E949006DF91F1
S1130DC0CF910895CF93C82F41E063E081E00E9462
S1130DD0890583B78F7783BF83B7806483BF83B765
S1130DE0886083BFCC2319F0C13041F00DC083B7B4
S1130DF08F7E83BF83B7806283BF06C083B7806161
S1130E0083BF83B7806283BF83B7816083BF83B7A7
S1130E108D7F83BF83B78B7F83BFCF910895682F66
S1130E2070E080E090E00E94C20723E333E343E2F2
S1130E3050E40E944E080E9491076CBF08950E94DE
S1130E4033070C9414080E940D0858F00E940608F9
S1130E5040F029F45F3F29F00C94FD0751110C94E4
S1130E6048080C9403080E94250868F39923B1F3F9
S1130E70552391F3951B550BBB27AA2762177307BC
S1130E80840738F09F5F5F4F220F331F441FAA1F50
S1130E90A9F335D00E2E3AF0E0E832D0915050400C
S1130EA0E695001CCAF72BD0FE2F29D0660F771FBA
S1130EB0881FBB1F261737074807AB07B0E809F0A0
S1130EC0BB0B802DBF01FF2793585F4F3AF09E3F25
S1130ED0510578F00C94FD070C9448085F3FE4F347
S1130EE0983ED4F3869577956795B795F7959F5F68
S1130EF0C9F7880F911D9695879597F90895E1E0B4
S1130F00660F771F881FBB1F621773078407BA0712
S1130F1020F0621B730B840BBA0BEE1F88F7E0956D
S1130F2008950E942D0888F09F5798F0B92F9927AB
S1130F30B751B0F0E1F0660F771F881F991F1AF0C0
S1130F40BA95C9F714C0B13091F00E944708B1E0D6
S1130F5008950C944708672F782F8827B85F39F0D5
S1130F60B93FCCF3869577956795B395D9F73EF459
S1130F7090958095709561957F4F8F4F9F4F089501
S1130F80E89409C097FB3EF490958095709561951F
S1130F907F4F8F4F9F4F9923A9F0F92F96E9BB27D5
S1130FA09395F695879577956795B795F111F8CF51
S1130FB0FAF4BB0F11F460FF1BC06F5F7F4F8F4FBC
S1130FC09F4F16C0882311F096E911C0772321F0B2
S1130FD09EE8872F762F05C0662371F096E8862F4A
S1130FE070E060E02AF09A95660F771F881FDAF7A1
S1130FF0880F9695879597F9089597F99F6780E8E4
S113100070E060E008959FEF80EC089500240A9456
S11310101616170618060906089500240A941216CF
S11310201306140605060895092E0394000C11F402
S1131030882352F0BB0F40F4BF2B11F460FF04C0AF
S11310406F5F7F4F8F4F9F4F089557FD9058440F08
S1131050551F59F05F3F71F04795880F97FB991F13
S113106061F09F3F79F087950895121613061406D0
S1131070551FF2CF4695F1DF08C01616170618065D
S1131080991FF1CF86957105610508940895E89438
S1131090BB2766277727CB0197F908950E9461083B
S11310A00C9414080E94060838F00E940D0820F0E1
S11310B0952311F00C94FD070C94030811240C944F
S11310C048080E94250870F3959FC1F3950F50E0DE
S11310D0551F629FF001729FBB27F00DB11D639FE6
S11310E0AA27F00DB11DAA1F649F6627B00DA11D8C
S11310F0661F829F2227B00DA11D621F739FB00D32
S1131100A11D621F839FA00D611D221F749F3327A1
S1131110A00D611D231F849F600D211D822F762F3A
S11311206A2F11249F5750409AF0F1F088234AF017
S1131130EE0FFF1FBB1F661F771F881F9150504083
S1131140A9F79E3F510580F00C94FD070C944808C4
S11311505F3FE4F3983ED4F3869577956795B7950A
S1131160F795E7959F5FC1F7FE2B880F911D969524
S1131170879597F90895052E97FB1EF400940E9415
S1131180D20857FD07D00E94E00807FC03D04EF4B4
S11311900C94D20850954095309521953F4F4F4F70
S11311A05F4F089590958095709561957F4F8F4F0F
S11311B09F4F0895EE0FFF1F0590F491E02D0994C1
S11311C0A1E21A2EAA1BBB1BFD010DC0AA1FBB1F47
S11311D0EE1FFF1FA217B307E407F50720F0A21BB9
S11311E0B30BE40BF50B661F771F881F991F1A9426
S11311F069F760957095809590959B01AC01BD0150
S10B1200CF010895F894FFCF1B
S113120854656D703A200053706565643A20000097
S9030000FC
